{
  "contractName": "Counter",
  "abi": [
    {
      "inputs": [],
      "name": "counter",
      "outputs": [
        {
          "internalType": "int256",
          "name": "",
          "type": "int256"
        }
      ],
      "stateMutability": "view",
      "type": "function"
    },
    {
      "inputs": [],
      "name": "Election",
      "outputs": [],
      "stateMutability": "nonpayable",
      "type": "function"
    },
    {
      "inputs": [],
      "name": "increment",
      "outputs": [],
      "stateMutability": "nonpayable",
      "type": "function"
    }
  ],
  "bytecode": "0x608060405234801561001057600080fd5b506101cf806100206000396000f3fe608060405234801561001057600080fd5b50600436106100415760003560e01c80631d6c263c1461004657806361bc221a14610050578063d09de08a1461006e575b600080fd5b61004e610078565b005b610058610081565b60405161006591906100b1565b60405180910390f35b610076610087565b005b60008081905550565b60005481565b600160008082825461009991906100cc565b92505081905550565b6100ab81610160565b82525050565b60006020820190506100c660008301846100a2565b92915050565b60006100d782610160565b91506100e283610160565b9250817f7fffffffffffffffffffffffffffffffffffffffffffffffffffffffffffffff0383136000831215161561011d5761011c61016a565b5b817f80000000000000000000000000000000000000000000000000000000000000000383126000831216156101555761015461016a565b5b828201905092915050565b6000819050919050565b7f4e487b7100000000000000000000000000000000000000000000000000000000600052601160045260246000fdfea26469706673582212201c1331bbfce9b36da90b75d89e49e1c896d5ff75fe372c0d8381abe63a106f6a64736f6c63430008040033",
  "immutableReferences": {},
  "source": "// SPDX-License-Identifier: MIT\r\npragma solidity ^0.8.4;\r\n\r\ncontract Counter {\r\n    int public counter;\r\n\r\n    function Election () public {\r\n        counter = 0;\r\n    }\r\n\r\n    function increment () public {\r\n        counter += 1;\r\n    }\r\n}",
  "sourcePath": "D:\\bnb\\contracts\\bsc\\oldones\\Counter.sol",
  "compiler": {
    "name": "solc",
    "version": "0.8.4+commit.c7e474f2.Emscripten.clang"
  },
  "schemaVersion": "3.4.11",
  "updatedAt": "2022-12-16T21:49:55.686Z",
  "devdoc": {
    "kind": "dev",
    "methods": {},
    "version": 1
  },
  "userdoc": {
    "kind": "user",
    "methods": {},
    "version": 1
  },
  "db": {
    "callBytecode": {
      "id": "0xe57f125761dc85a3530201a7e79bfa23b6bdcff6fdaa83f9322e2010e6f8347d"
    },
    "createBytecode": {
      "id": "0x1c9c3685fa57370b735ebb2c0431048e74de3a9958ac13fb1a358a766a2fc6be"
    },
    "contract": {
      "id": "0x3560cadf771f8cb5d39507daac39099164431fc48e6695dbe4c664dfc2206d6d"
    }
  }
}