{
  "contractName": "ToDos",
  "abi": [
    {
      "inputs": [],
      "stateMutability": "nonpayable",
      "type": "constructor"
    },
    {
      "inputs": [
        {
          "internalType": "uint256",
          "name": "",
          "type": "uint256"
        }
      ],
      "name": "todos",
      "outputs": [
        {
          "internalType": "string",
          "name": "",
          "type": "string"
        }
      ],
      "stateMutability": "view",
      "type": "function",
      "constant": true
    },
    {
      "inputs": [],
      "name": "getNum",
      "outputs": [
        {
          "internalType": "uint256",
          "name": "",
          "type": "uint256"
        }
      ],
      "stateMutability": "view",
      "type": "function",
      "constant": true
    },
    {
      "inputs": [],
      "name": "getTodos",
      "outputs": [
        {
          "internalType": "string[]",
          "name": "",
          "type": "string[]"
        }
      ],
      "stateMutability": "view",
      "type": "function",
      "constant": true
    },
    {
      "inputs": [
        {
          "internalType": "string",
          "name": "newValue",
          "type": "string"
        }
      ],
      "name": "pushToTodos",
      "outputs": [],
      "stateMutability": "nonpayable",
      "type": "function"
    },
    {
      "inputs": [
        {
          "internalType": "uint256",
          "name": "index",
          "type": "uint256"
        }
      ],
      "name": "remfromTodos",
      "outputs": [],
      "stateMutability": "nonpayable",
      "type": "function"
    },
    {
      "inputs": [
        {
          "internalType": "uint256",
          "name": "index",
          "type": "uint256"
        },
        {
          "internalType": "string",
          "name": "newValue",
          "type": "string"
        }
      ],
      "name": "editTodo",
      "outputs": [],
      "stateMutability": "nonpayable",
      "type": "function"
    }
  ],
  "bytecode": "0x608060405234801561001057600080fd5b506000600181905550610b9d806100286000396000f3fe608060405234801561001057600080fd5b50600436106100625760003560e01c806367e0badb146100675780636a4191a714610085578063901ee0b8146100a1578063bc8bc2b4146100bd578063c33926cb146100ed578063c823a9111461010b575b600080fd5b61006f610127565b60405161007c9190610885565b60405180910390f35b61009f600480360381019061009a91906106ba565b610131565b005b6100bb60048036038101906100b691906106e3565b610253565b005b6100d760048036038101906100d291906106ba565b6102b0565b6040516100e49190610863565b60405180910390f35b6100f561035c565b6040516101029190610841565b60405180910390f35b61012560048036038101906101209190610679565b610435565b005b6000600154905090565b60006001600080549050610145919061095c565b8154811061017c577f4e487b7100000000000000000000000000000000000000000000000000000000600052603260045260246000fd5b90600052602060002001600082815481106101c0577f4e487b7100000000000000000000000000000000000000000000000000000000600052603260045260246000fd5b906000526020600020019080546101d690610a06565b6101e192919061048c565b50600160008154809291906101f5906109dc565b91905055506000805480610232577f4e487b7100000000000000000000000000000000000000000000000000000000600052603160045260246000fd5b60019003818190600052602060002001600061024e9190610519565b905550565b806000838154811061028e577f4e487b7100000000000000000000000000000000000000000000000000000000600052603260045260246000fd5b9060005260206000200190805190602001906102ab929190610559565b505050565b600081815481106102c057600080fd5b9060005260206000200160009150905080546102db90610a06565b80601f016020809104026020016040519081016040528092919081815260200182805461030790610a06565b80156103545780601f1061032957610100808354040283529160200191610354565b820191906000526020600020905b81548152906001019060200180831161033757829003601f168201915b505050505081565b60606000805480602002602001604051908101604052809291908181526020016000905b8282101561042c57838290600052602060002001805461039f90610a06565b80601f01602080910402602001604051908101604052809291908181526020018280546103cb90610a06565b80156104185780601f106103ed57610100808354040283529160200191610418565b820191906000526020600020905b8154815290600101906020018083116103fb57829003601f168201915b505050505081526020019060010190610380565b50505050905090565b600081908060018154018082558091505060019003906000526020600020016000909190919091509080519060200190610470929190610559565b506001600081548092919061048490610a69565b919050555050565b82805461049890610a06565b90600052602060002090601f0160209004810192826104ba5760008555610508565b82601f106104cb5780548555610508565b8280016001018555821561050857600052602060002091601f016020900482015b828111156105075782548255916001019190600101906104ec565b5b50905061051591906105df565b5090565b50805461052590610a06565b6000825580601f106105375750610556565b601f01602090049060005260206000209081019061055591906105df565b5b50565b82805461056590610a06565b90600052602060002090601f01602090048101928261058757600085556105ce565b82601f106105a057805160ff19168380011785556105ce565b828001600101855582156105ce579182015b828111156105cd5782518255916020019190600101906105b2565b5b5090506105db91906105df565b5090565b5b808211156105f85760008160009055506001016105e0565b5090565b600061060f61060a846108c5565b6108a0565b90508281526020810184848401111561062757600080fd5b61063284828561099a565b509392505050565b600082601f83011261064b57600080fd5b813561065b8482602086016105fc565b91505092915050565b60008135905061067381610b50565b92915050565b60006020828403121561068b57600080fd5b600082013567ffffffffffffffff8111156106a557600080fd5b6106b18482850161063a565b91505092915050565b6000602082840312156106cc57600080fd5b60006106da84828501610664565b91505092915050565b600080604083850312156106f657600080fd5b600061070485828601610664565b925050602083013567ffffffffffffffff81111561072157600080fd5b61072d8582860161063a565b9150509250929050565b600061074383836107c0565b905092915050565b600061075682610906565b6107608185610929565b935083602082028501610772856108f6565b8060005b858110156107ae578484038952815161078f8582610737565b945061079a8361091c565b925060208a01995050600181019050610776565b50829750879550505050505092915050565b60006107cb82610911565b6107d5818561093a565b93506107e58185602086016109a9565b6107ee81610b3f565b840191505092915050565b600061080482610911565b61080e818561094b565b935061081e8185602086016109a9565b61082781610b3f565b840191505092915050565b61083b81610990565b82525050565b6000602082019050818103600083015261085b818461074b565b905092915050565b6000602082019050818103600083015261087d81846107f9565b905092915050565b600060208201905061089a6000830184610832565b92915050565b60006108aa6108bb565b90506108b68282610a38565b919050565b6000604051905090565b600067ffffffffffffffff8211156108e0576108df610b10565b5b6108e982610b3f565b9050602081019050919050565b6000819050602082019050919050565b600081519050919050565b600081519050919050565b6000602082019050919050565b600082825260208201905092915050565b600082825260208201905092915050565b600082825260208201905092915050565b600061096782610990565b915061097283610990565b92508282101561098557610984610ab2565b5b828203905092915050565b6000819050919050565b82818337600083830152505050565b60005b838110156109c75780820151818401526020810190506109ac565b838111156109d6576000848401525b50505050565b60006109e782610990565b915060008214156109fb576109fa610ab2565b5b600182039050919050565b60006002820490506001821680610a1e57607f821691505b60208210811415610a3257610a31610ae1565b5b50919050565b610a4182610b3f565b810181811067ffffffffffffffff82111715610a6057610a5f610b10565b5b80604052505050565b6000610a7482610990565b91507fffffffffffffffffffffffffffffffffffffffffffffffffffffffffffffffff821415610aa757610aa6610ab2565b5b600182019050919050565b7f4e487b7100000000000000000000000000000000000000000000000000000000600052601160045260246000fd5b7f4e487b7100000000000000000000000000000000000000000000000000000000600052602260045260246000fd5b7f4e487b7100000000000000000000000000000000000000000000000000000000600052604160045260246000fd5b6000601f19601f8301169050919050565b610b5981610990565b8114610b6457600080fd5b5056fea2646970667358221220c8f45152ccac82cf75ed43dc81fc4c93b6bab89053f2414ecce49c26ed1939cb64736f6c63430008040033",
  "immutableReferences": {},
  "source": "// SPDX-License-Identifier: MIT\r\npragma solidity ^0.8.4;\r\n\r\ncontract ToDos {\r\n    string[] public todos;\r\n    uint numberofTodos;\r\n\r\n    function getNum() public view returns (uint256) {\r\n        return numberofTodos;\r\n    }\r\n    \r\n    constructor() {\r\n        numberofTodos = 0;\r\n      \r\n    }\r\n\r\n    function getTodos() public view returns (string[] memory) {\r\n\r\n        return todos;\r\n    }\r\n\r\n    function pushToTodos(string memory newValue) public {\r\n        todos.push(newValue);\r\n        numberofTodos++;\r\n    }\r\n\r\n    function remfromTodos(uint256 index) public {\r\n        todos[index] = todos[todos.length-1];\r\n        numberofTodos--;\r\n        todos.pop();\r\n        \r\n    }\r\n\r\n    function editTodo(uint256 index,string memory newValue) public {\r\n        todos[index] = newValue;\r\n    }\r\n\r\n\r\n\r\n}",
  "sourcePath": "D:\\bnb\\contracts\\bsc\\ToDoApp.sol",
  "compiler": {
    "name": "solc",
    "version": "0.8.4+commit.c7e474f2.Emscripten.clang"
  },
  "schemaVersion": "3.4.11",
  "updatedAt": "2022-12-16T21:51:47.973Z",
  "networkType": "ethereum",
  "devdoc": {
    "kind": "dev",
    "methods": {},
    "version": 1
  },
  "userdoc": {
    "kind": "user",
    "methods": {},
    "version": 1
  },
  "db": {
    "callBytecode": {
      "id": "0x46ba0a3c73d532d060564c77e9a8ec6bb225a984ea82e0cfa9acab7899698075"
    },
    "createBytecode": {
      "id": "0x5ca7a2484ef883567be663daf13f4db984d5fe2cc1c8d0b926159026254cbdae"
    },
    "contract": {
      "id": "0xbf7b8d26d1c6c44077053ae03c720c171f4391ec1c0ca8a632fa7d863d33b343"
    }
  }
}